:020000020000FC
:100000000C94AD250C94BF3B0C94C43B0C94C93BA1
:100010000C94CE3B0C94D33B0C940A3C0C940F3CB8
:100020000C94143C0D94E01D18951895189518958E
:10003000189518950C94AF38189518950C94DB38D2
:100040001895189518951895189518951895189548
:100050001895189518951895189518951895189538
:100060000C94153E0C94383B0C94133B0C94183BA9
:10007000189518950C94B43D0C947E3C18951895E1
:100080001895189518951895189518951895189508
:100090000C94563B0C94483B0C944E3B0C94193CEE
:1000A00018951895189518950C94613A0C942A3F58
:1000B00018951895189518951895189518951895D8
:1000C00018951895189518951895189518951895C8
:1000D00018951895189518951895189518951895B8
:1000E00018951895189518951895189518951895A8
:1000F0000C94583F18951895189518950C945C3FDA
:100100001895189518951895189518951895189587
:100110001895189518951895189518950C948B3F67
:100120001895189518951895189518951895189567
:05013000189518951858
:104400000000934A000F007B4A007B4A007D4A006F
:104410007D4A007F4A007F4A00814A00834A008526
:104420004A00874A00894A008B4A008D4A008F4A19
:1044300000914A004001025900F4580001B45800AC
:10444000012F5900012F5900012F590001B75800C1
:1044500001BB5800022F590001BE580001C158008D
:1044600001C4580001C85800012F590001CB580061
:1044700001CE580001D15800012F590001D5580034
:1044800001D8580002DC580001E8580001FA580031
:10449000012F590001EB580001EE5800013059007E
:1044A00001F1580001F1580012E25800022F5900A2
:1044B000012F5900012F5900012F5900012F5900D8
:1044C000012F5900012F5900012F5900012F5900C8
:1044D000012F5900012F5900012F5900012F5900B8
:1044E000012F590002FD58000100590002DE58005A
:1044F000FB000101396800AD670001106800011D73
:104500006800018E670003196800011D6800011F23
:10451000680001316800012768000331680001A7C5
:10452000670001336800FB000100BB6A000E0097C2
:104530006A009A6A009D6A009D6A00A06A00AC6ADF
:1045400000A66A00A96A00BB6A00A36A00AF6A00FD
:10455000B26A00B56A00B86A00000100086B00107A
:1045600000CA6A000F6B000F6B000F6B00D16A006E
:10457000EE6A00DF6A00E66A00086B00D86A00F5A0
:104580006A00F56A00FD6A000F6B00166B00196B7C
:1045900000002401727F008F7F0001967F0001A937
:1045A0007F0003787F0001877F0004C07F0001C87F
:1045B0007F0001D47F0001D87F0002767F00019D3B
:1045C0007F0001557F00FB0000000146D40039D474
:1045D00000013BD4000141D4000141D400013DD48D
:1045E000000141D4000144D4000A41D4000141D467
:1045F000000237D400013FD4000141D400FB000089
:1046000001B6D40081D4000184D400018DD400010E
:1046100090D4000193D40001B0D40001B3D4000AB7
:1046200096D40001AAD40003ADD4000187D400FBC6
:104630000100E1F4000C002BF40065F40037F400F5
:1046400055F400BCF40065F4009CF400C1F4007360
:10465000F4009CF400BFF400D4F40000000175FFE6
:104660000061FF002361FF000161FF00026FFF0096
:104670000561FF001661FF000366FF00016CFF008B
:104680000361FF00016CFF00046CFF000261FF008A
:104690000461FF00076CFF000761FF000366FF0075
:1046A000016CFF000361FF00016CFF00046CFF0060
:1046B0000261FF000461FF00076CFF00FB002501A1
:1046C0001B02015E01010D8D0101019E010101AF7F
:1046D000010104C001010B1802010168010108F881
:1046E0000101010D0201037001010362010105EFE7
:1046F00001010B1802010168010108F80101010D17
:104700000201037001010362010105EF0101FB00D9
:1047100001007E1B011A002E1B01461B01301B01EC
:10472000561B01341B013B1B013E1B01431B014671
:104730001B01461B01481B01511B01551B015B1B43
:10474000017E1B01631B017E1B01651B01671B01B1
:10475000691B017E1B017E1B016F1B017E1B017209
:104760001B01781B01000001253301C3320101CA7E
:10477000320101CF320101D5320101DA320102E109
:10478000320101E8320109EE320101F4320101FC8B
:1047900032010102330101093301010F330101200C
:1047A0003301011A3301FB0000002B41011500C445
:1047B0004001CF4001C64001D44001DF4001E64046
:1047C00001E84001134101EA4001EC4001FC4001D5
:1047D0000641010841010A41010C41010E4101104D
:1047E00041011241011541011B41012A4101000013
:1047F000AF4C012E00FB4B01064C01084C010A4C4A
:10480000018A4C010D4C010C4C01124C01144C015D
:10481000164C011B4C01244C01354C013D4C014A06
:104820004C014C4C01504C014E4C01524C015F4C20
:10483000016D4C01664C01684C016A4C016C4C01E5
:10484000AF4C016F4C01764C01784C01AF4C0182AA
:104850004C01844C01AF4C01AF4C01AF4C01AF4C4B
:1048600001874C01864C01894C018D4C018F4C0114
:10487000914C01984C01A54C01AB4C015B4C0100E3
:1048800001011E4D01E84C0102EA4C010EEC4C0105
:10489000051D4D0101EE4C0101F04C0101F34C01ED
:1048A00004F54C0101FC4C0101FE4C0101004D01DD
:1048B000010C4D0101134D01011B4D01FB000000D6
:1048C0003A4F011300ED4E01F04E01F24E01F54E4C
:1048D00001F84E01FB4E01064F01094F01144F0133
:1048E000164F01184F01234F01204F01264F012879
:1048F0004F012B4F012D4F012F4F01374F0100006A
:10490000B35B010F004C5B016E5B017B5B017B5B6A
:10491000016E5B017B5B01AC5B016E5B01A85B011F
:104920006E5B01A45B01B05B018F5B016E5B014CB0
:104930005B010801E96101A8610101AB610101AE00
:10494000610101B1610101B4610101B7610101BA05
:10495000610101BD610101A8610108A8610101AB0C
:10496000610101AE610101B1610101B4610101B7F1
:10497000610101BA610101BD610101A7610101AAE3
:10498000610101AD610101B0610101B3610101B6D5
:10499000610101B9610101BC610101A7610101AAC5
:1049A000610101AD610101B0610101B3610101B6B5
:1049B000610101B9610101BC610101A8610101ABA3
:1049C000610110C2610101C2610106CC610104DF15
:1049D000610104CC610101CC610191B0610106ABC0
:1049E000610101AB610107BD610101BF6101FB0014
:1049F00001004B002F59306D010002006603234176
:104A000000000001030081001750000000020400B4
:104A10000300683C00000000050024008D4B0000EE
:104A20000002060002006D3C0000000007004A0181
:104A3000564E0000000108000900844B00000001F0
:104A4000090001004E3C00000000B45600090001BE
:014A50004025
:104A52007F937FB7F8949D9AA5980AEF0E948825C4
:104A62000AEF0E9488259D9806E40E94882501E0AD
:104A7200959900E00F9300EF0E9488250F917FBF68
:104A82007F9108957F937FB7F8949D9AA59806E049
:104A92000E9488259D980AE00E948825889495990D
:104AA2000894001F0F9304E60E9488250F917FBF90
:104AB2007F9108959F937F9398E00E9443250795E5
:104AC20077959A959923C9F7072F7F919F9108951A
:104AD2007F937FB7F894A5989D9A0F9306E00E9462
:104AE20088250F91079508F49D980F9304E60E947C
:104AF20088250F919D987FBF7F9108959F9398E09D
:104B02000E9469259A959923D9F79F9108950000EB
:104B12000000000000000A950023C9F708955F9382
:104B22007F937FB7F894CF93DF93C0E0D0E07F9379
:104B32005091B2007091B2007517E1F3739521960E
:104B42005091B2005717D9F77F918E01DF91CF9123
:104B52007FBF7F915F9108950E94BA370DECABE75A
:104B6200CBE7B9E5D1E60D93AC17BD07E1F7ABE7AB
:104B7200CBE7B1E6D1E70D93AC17BD07E1F70AE742
:104B82000DBF01E60EBFCBE7D1E70E94B3FA0023C7
:104B920011F00E94A3FB0E9429FE0E94B1FA0C941C
:104BA200D2250C9433FC4A9512F0000FE1F70895D8
:104BB2004A9512F00695E1F708950024E8E0EA9597
:104BC20032F0001F001C0416D0F3041AF8CF001FA5
:104BD200402D00950895149F102D059F100D049FE0
:104BE200002D110D0895000F111F4A95E2F7089547
:104BF200169507954A95E2F70895159507954A95F2
:104C0200E2F7089500241124EFE0001F111F001C99
:104C1200111C0416150610F0041A150AEA95AAF7D3
:104C2200001F111FA00100951095089551954195FF
:104C320050400895FF27552312F4F160F7DF112346
:104C420012F4F09507D00E940326F0FD03D0F1FD87
:104C5200EDCF089511950195104008952224349FB7
:104C6200302D259F300D169F300D079F300D249F4C
:104C7200202D310D159F200D311D069F200D311D58
:104C8200149F102D210D321D059F100D211D321D67
:104C9200049F002D110D221D321D0895000F111FBA
:104CA200221F331F4A95D2F70895369527951795F7
:104CB20007954A95D2F70895002411241001E0E2E5
:104CC200EA9592F0001F111F221F331F001C111CB6
:104CD200221C331C041615062606370688F3041A0E
:104CE200150A260A370AECCF001F111F221F331F95
:104CF200A001B10100951095209530950895779106
:104D0200679157914791179011FA27903790079022
:104D12000CBE0895F7DF041B10E003C0F2DF041B92
:104D2200150B20E030E005C0EADF041B150B260B53
:104D3200370B28F110FC25C047910790E00FF11FB7
:104D42000417100540E024073407C8F486F412FE65
:104D520005C0E00FF11F0791069002C006910024E2
:104D6200F101E01BF0090CB700400CBF1994E00FF1
:104D7200F11FE00FF11F2790379007900CBEF10151
:104D8200199411F4C6F7E3CF319612FC31960EF066
:104D9200329650E060E070E047914B3F48F079F383
:104DA2004F3F29F04E3F11F077916791579147910C
:104DB200041B150B260B370B29F308F3E5CFAF9332
:104DC200BF93D80101900D9241505040D9F7BF9145
:104DD200AF910895AF93BF93D8013BBF07900D9257
:104DE20041505040D9F7BF91AF910895E00FF11FA4
:104DF20002900A9201501040D9F70895FA92EA926D
:104E0200DA92CA92BA92AA929A928A927A926A9200
:104E12005A924A92BA93AA939A938A930895FF84D4
:104E2200EE84DD84CC84BB84AA84998488847F80C8
:104E32006E805D804C80BB81AA8199818881F0E07F
:104E4200EC0FFD1FEF0108958081080F8181181F6B
:104E52008281281F8381381F8481481F8581581FC2
:104E62008681681F8781781F08958081082B818140
:104E7200182B8281282B8381382B8481482B8581B2
:104E8200582B8681682B8781782B08958081081B97
:104E92008181180B8281280B8381380B8481480B16
:104EA2008581580B8681680B8781780B0895109550
:104EB20020953095409550956095709501951F4FBE
:104EC2002F4F3F4F4F4F5F4F6F4F7F4F089580815E
:104ED2000817818118078281280783813807848116
:104EE2004807858158078681680787817807089572
:104EF200FF93EF933BB72BBFF80106913BBFEF91B6
:104F0200FF91089500000000000000000000000072
:104F1200000000000000000000000000000000008F
:104F2200000000000000000000000000000000007F
:104F3200000000000000000000000000000000006F
:104F4200000000000000000000000000000000005F
:104F5200000000000000000000000000000000004F
:104F6200000000000000000000000000000000003F
:104F7200000102010002020605080000FFFF3412D0
:104F820000000000000000000519000501000000FB
:104F9200000100F8FF070000000000000000000010
:104FA200000000000005FF00000205AAAAAAAAAAA2
:104FB200AAAAAAFFFF00070707077F7A785A5F07A6
:104FC20007070707787F1F03EC2C0000000134124B
:104FD2000003040000020000000000030310270089
:104FE2000010270000010001F401000005E80300A1
:104FF200001041746D656C2020202020202020208C
:10500200202000000000000000000001012C016CC3
:10501200000100001E05001E1E050604023C0005DC
:1050220008FF140000000308FFFF03020A901A00A1
:10503200000F000000053D00000003141002204E86
:105042000000010300013D500003CB3B000800D5E6
:105052003B000100A63C000400AA3C000100563CB3
:10506200000100573C0001005E3C0008005A3C0071
:105072000200E23B000200EB3B000100523C000157
:10508200006F3C000100583C000100AE3C000100F2
:10509200AF3C000100B03C000100B13C000100AC9B
:1050A2003C000200B23C000100B33C000100543C51
:1050B200000100533C000100833C000100843C00DD
:1050C2000100E03C000800703C000400C63C000403
:1050D20000BB3C000400BF3C000400C33C000100D4
:1050E200C43C000100C53C000100CF3C0011004F50
:1050F2003C000100CA3C000100CB3C000400883C9B
:10510200000100853C000200E83C000100AB3C00CD
:10511200010000000000000000000000A53C0001AA
:10512200000000000000000000000000000000007D
:1051320000000000000C1A001000E93C00010069A8
:105142003C0001006A3C000100EA3C000100893C8D
:10515200000800913C000200B43C000500B93C008C
:105162000100BA3C00010000000000000000000045
:10517200000000000000000000000000000000002D
:1051820000000000000000000000D63B0001000FFC
:10519200500002001350000100165000010014508C
:1051A20000020019500001001A500001001B5000BB
:1051B20001001C500001001D500001001E500001A2
:1051C200001F500002001750000200215000010091
:1051D20022500001003D500002002C500001002D21
:1051E200500001002E5000010039500004002350ED
:1051F2000001002450000400285000010029500042
:10520200010033500001003450000100355000020B
:10521200003750000100385000010000000000007B
:105222000000000000000000000000000000003F3D
:1052320050000100405000040044500001000000F2
:10524200000000455000020047500001002A5000B3
:1052520001002B500001004850000100495000019C
:10526200004A500001004B50000100000000000005
:105272002F500004001150000200EB3C00000023FC
:1052820041000000833E00000089440000001741F5
:1052920000000000000000005B45000000D44D004B
:1052A20000002E4E0000002F490000002D4B000090
:1052B20000D34A000000644B000000B14B00000024
:1052C200464D0000000000000000000000000084C5
:1052D2004B000000564E00000019510000009E5382
:1052E20000000000000000000000000000000000BC
:1052F20000000000000000683C0000008D4B000030
:10530200000000000000A04F0000000000000000AC
:1053120017500000009850000000AA50000000DE64
:10532200540000000655000000173E000000200057
:105332000000000010000000000003FCAF60110735
:1053420001000100010000FE819700D695002BA309
:1053520000928200000000FA7A006580004F860009
:105362000000000000000201020303020201010129
:105372000101010101010202010101020102020215
:1053820002020201020202020202010303020203FA
:105392008B7200C1A400948700EB7D00368500006B
:1053A2000000C574009078008882004F7500DCA26E
:1053B200001C6F00109200D19300879500A191000C
:1053C2004A880000000095AA0018920058A400170D
:1053D2006E0061A5002B93005594005CA2000E9113
:1053E20000A07200657500787E00B67A005C8300CA
:1053F200DB7400737200B387000000000000001B22
:105402008C00658D000000005D8F0002DF8500A02A
:105412008500010770A300F7A300010170A300F744
:10542200A30001016081003F80000101747B0053F1
:105432007C000101747B00C27B000107F083001C29
:1054420084000101E38400BA84000101000000002D
:105452000000010700000000000001010000000040
:1054620000000103000000FC94000104000000FCA5
:105472009400010500000000000001060000000089
:105482000000010D000000000000010170A30000F7
:1054920000000001000000000000010E00000000FA
:1054A20000000107000000000000010A00000000E7
:1054B20000000100000000000000010100000000E7
:1054C200000001010000000000000000000000498F
:1054D20072000009000000497200000C000000493F
:1054E200720000000000004972000000000000008D
:1054F200000000000000000E01000E02000E040079
:105502000E05000E06000E07000E08000E0900052B
:105512000100050200050400050500050600050757
:10552200000508000509000401000402000404004B
:10553200040600040500040700040800040900062C
:105542000100020200030200090300150300200308
:1055520000140400140500140600100700110800CE
:105562001208001F0600260900240100FFFF00AFF9
:105572000000004000000001005A69674265654171
:105582006C6C69616E6365303900000000000000D8
:105592000000000000000000A7CF0051D00019C693
:1055A20000EFC60048CC0000000000000000000030
:1055B200000000EACD00AACA0076BC002FC7001B7B
:1055C200AE00EEAB000000000000003ECF0005413F
:1055D200000541000541000541006841004C4000C2
:1055E200C93F008C38005D3D00FE3C005747007308
:1055F2003900EF4600BE45009F450006410001000C
:105602000000000000000000000000010000000097
:105612000000000000000000010000000000000087
:105622000000000000D0D1D2D3D4D5D6D7D8D9DA51
:10563200DBDCDDDEDF00C0C1C2C3C4C5C6C7C8C96A
:10564200CACBCCCDCECF0001000000000003800009
:105652000000000003E2E40007EA00CCE100DAE621
:1056620000F6D0000CD9000000000000000000008D
:105672000000000000000000000000000000000028
:105682000000000000020302020101010101020206
:105692000102020201020302010203020207FA00EE
:1056A2001EFA0011F9008EFA000DF500EFF5005315
:1056B200F7000100020003000400050006000700D5
:1056C20008000900814400834400854400874400A7
:1056D2008844008A4400000000000000000000002E
:1056E200000000000000C0C1C2C3C4C5C6C7C8C90B
:1056F200CACBCCCDCECF030700E66A01000700EC8F
:105702006A01216301E15701A156016DEF00CFEE5D
:105712000046F000FFFF0001010000000800000049
:105722000000000101010000040810FFFF0035180D
:1057320000023E5700453F351A00000000000000FD
:10574200000000000000763A000000FFFF00FF00AA
:10575200000000010000000000FFFF00000000FF49
:10576200FF00000000000000000000EA6B0001FFE3
:10577200D787380C04000000000000000000000081
:10578200079300000000000000000000008E82006D
:105792000000000000000200000000000000000005
:1057A20000D8CB00FFFFFDFFFCFFFBFF0000000065
:1057B2000000000000000DDF0000000000000000FB
:1057C20000000031DF0000000000000000000000C7
:1057D2005EDF002000FDFFFFFFFFFFFFFFFCFFFF7A
:1057E200FFFFFFFFFFFBFFFFFFFFFFFFFF000000C8
:1057F2000000008FF1000100000000000000000026
:1058020000000000000000000000000D0A244E45C8
:1058120057444556553A2532782C2538780D0A00DA
:10582200000000000000000000000003FE00000075
:10583200000000000000FAFFFFFFFFFFFFFF000073
:1058420000127604000000000000000000000000CA
:105852000001050100000003440D000000000000EB
:10586200000000000000010501000100000000002E
:10587200000000000000000000000006040100001B
:10588200000000000000000000000000000002070D
:105892000300000003000000000000000000000000
:1058A20000000501000000029F0D00000000000042
:1058B20000000000020501000000000000000000DE
:1058C20000000000000000060001000000060000C9
:1058D20000000000000000000000080001000000BD
:1058E20008000000000000000000000000040001A9
:1058F2000000000A0D0B0000000000000000000084
:1059020005000100000013440C000000000000002C
:10591200000000000301000000130000000000006E
:105922000000000000000F00010000000000000065
:10593200000000000000000000020401000000005E
:10594200000000000000000000000000050401004B
:105952000000000000000000000000000000000342
:10596200000100000004C20D000000000000000061
:1059720000000100060402070005020506000800F7
:105982000400050000030F00020405040300506830
:10599200696C69707300434F4E54524F4C0030345F
:1059A20031303230313300302E302E302E30303024
:1059B200310000002002000100200200020020024B
:1059C2000003002002000400420200000000000068
:1059D2000000000500420200000000000000000676
:1059E2000042020000000000000000000700300238
:1059F2000000404202000000000000000000000021
:105A0200000000000002403000000080420200005E
:105A12000000000000000000000000000000000183
:105A220080420200000000000000000000000000B0
:105A3200000000000280420200000000000000009E
:105A4200000000000000000000038042020000008D
:105A520000000000000000000000000000000480C0
:105A620042020000000000000000000000000000F0
:105A7200000000058042020000000000000000005B
:105A820000000000000000000680290200000780DC
:105A9200210200004552524F523A2532780D0A0037
:105AA2004F4B0D0A0041540000000000000000317D
:105AB20005015A0000000000000000003205014903
:105AC2000000000000000000003505014500000054
:105AD20000000000000075050124520000000000D3
:105AE200000000780501245458504F570000000070
:105AF2007B050124444E530000000000009A05017A
:105B0200244A4E4E574B00000000AA0501244A4E7B
:105B1200454E0000000000270801244D415443482F
:105B2200000000005306012442494E4400000000D8
:105B320000AF06012452454D42494E44000002077F
:105B420001244558544144445200006B070124414A
:105B52004444525245510000830701244E4F4445AC
:105B62004445534300E407012441434550000000EB
:105B72000000A707012453494D504445534300C92F
:105B82000701244C56524551000000000708012429
:105B9200415454525252000000890901244346479D
:105BA200525245500000D7090124524550434647FE
:105BB200520000760A01244944454E0000000000CC
:105BC200DA1701244944454E5100000000F0170144
:105BD2002454524546000000000037180124414475
:105BE20044475200000000291001245649455747F6
:105BF200520000006110012447455447524D0000F5
:105C0200007F10012452454D475200000000CA1087
:105C1200012452454D414752000000F41001244135
:105C220044444752494600000A1101244144445366
:105C32004300000000111201245649455753430006
:105C420000005312012452454D5343000000006CE2
:105C520012012452454D4153430000008512012494
:105C620053544F5245534300009912012452454365
:105C7200414C4C534300BF12012447455453434DFA
:105C8200000000DC120124454E48414444534300C5
:105C9200F2120124454E485657534300006C13013B
:105CA200244F4E00000000000000B40B01244F46B8
:105CB20046000000000000C00B0124544F47474C2F
:105CC20045000000D00B01244F464657454646008A
:105CD20000E60B01244F4E575245430000004F0C83
:105CE20001244F4E57544F46460000150C01244DD7
:105CF20056544F4C56000000CC0C01244D564C56C5
:105D02000000000000F90C0124535445504C560089
:105D12000000230D012453544F504C560000004DF7
:105D22000D01244D56544F4C564F4F006A0D01241D
:105D32004D564C564F4F000000B60D0124535445AA
:105D4200504C564F4F00F70D012453544F504C56B0
:105D52004F4F001D0E01244D56544F4800000000C5
:105D6200750E01244D5648000000000000890E0106
:105D7200245354455048000000009B0E01244D5608
:105D8200544F5300000000B20E01244D5653000040
:105D920000000000CC0E0124535445505300000073
:105DA20000F10E01244D56544F48530000001F0FBE
:105DB20001244D56544F4300000000450F01244D6D
:105DC20056430000000000005B0F0124535445506D
:105DD2004300000000750F01244D56544F435400F8
:105DE2000000A40F012441524D524553500000FBC4
:105DF2001401244745545A494D5200001C150124F0
:105E02004745545A49520000005A1501245A455236
:105E12004553500000004A160124535457524E0075
:105E22000000000517012453515541574B00000053
:105E320044170124544C00000000000000C3180164
:105E4200000000000000000000000000000D0A41F8
:105E5200746D656C20484120436F6E74726F6C6C78
:105E62006572207625730D0A0030302E30332E30C5
:105E7200312E303031353030003000256300257846
:105E8200000D0A00493A434F4E54524F4C4C455272
:105E92002025730D0A0030302E30332E30312E3053
:105EA200303135303000493A25730D0A00496E749D
:105EB200657263656C00493A2538780D0A00244EF4
:105EC200574B3A25782C2532782C2532782C2538D8
:105ED200780D0A00244E574B3A4E6F4E574B0D0A1F
:105EE20000244D415443483A2532782C25780D0A36
:105EF2000024414444523A2538780D0A0024414492
:105F020044523A2532780D0A0024414345503A253D
:105F120078002C2578000D0A002453494D504C4539
:105F2200444553433A25782C2532782C2532782C57
:105F320025782C2578002C25327800244E4F4445B4
:105F4200444553433A25782C25782C25782C2578FE
:105F52002C25782C25782C2532782C25782C253266
:105F6200782C2532782C2532782C25780024424949
:105F72004E44494E443A2538782C25782C253278DF
:105F8200000D0A6572723D25780D0A0024415454B1
:105F92005252523A2532782C25782C2532782C25EB
:105FA20032782C2578002C000D0A002452455043EB
:105FB2004647523A25782C2532782C25782C2532E2
:105FC200782C253278002C2578002C253278002C6C
:105FD2002534780024434647525245503A25782CBE
:105FE20025327800245245504F5254553A25327882
:105FF2002C25782C2532782C2532782C002441440B
:1060020044475252553A2532780D0A0024564945E2
:1060120057475252553A2532782C002563000D0A13
:10602200002447455447524D52553A25780D0A00EF
:106032002449443A2532780D0A002452454D4752EC
:1060420052553A2532780D0A00001400000001145E
:1060520000000002140000000314000000041000FD
:106062000000051000000000111D1101011128118E
:106072000102114A11010311751101000001000012
:1060820000000000581B0000010912012441444491
:10609200534352553A25782C2532782C25780D0A0F
:1060A200002456494557534352553A25782C2532F8
:1060B200782C25782C2532782C002563000D0A00D7
:1060C2002447455453434D52553A25782C25782C74
:1060D200253278002C25780024454E4856494557EC
:1060E200534352553A25782C2532782C25782C2585
:1060F20032782C002C2532782C25782C25782C25EA
:1061020032782C25782C25782C2532782C25782C61
:106112002532782C2532782C2532782C25782C259E
:10612200782C25782C253278002452454D53435241
:10613200553A25782C2532782C25780D0A002452E0
:10614200454D41534352553A25782C2532780D0A54
:10615200002453544F5245534352553A25782C2527
:1061620032782C25780D0A0024454E484144445388
:106172004352553A25782C2532782C25780D0A0081
:10618200000000000000000000000000000000000D
:1061920000000000000000000000000000000000FD
:1061A20000000000000000000000000000000000ED
:1061B200000000117D1301011188130102119D13CA
:1061C200010311A813010411C213010611EA1301FC
:1061D20040111C140141112714014211000000005A
:1061E2000001000000000000581B000001F3140130
:1061F2000D0A2441524D3A2532782C25782C2578E7
:106202000D0A000D0A244259504153533A2532785F
:106212002C2578002C2578000D0A000D0A24454D06
:10622200455247454E43593A2532782C25780D0A76
:10623200000D0A24464952453A2532782C25780D1C
:106242000A000D0A2450414E49433A2532782C2542
:10625200780D0A000D0A244745545A49444D3A25FF
:1062620032782C25780D0A000D0A244745545A49E4
:106272004E464F3A2532782C25782C25780D0A0087
:1062820000149B15010110A115010210C315010391
:1062920010C715010410CF15010510D615010610FF
:1062A200DA15010D0A245A5343484E3A2532782C06
:1062B20025782C2532782C25780D0A000D0A245ACF
:1062C200454E524F4C4C5245513A2532782C257846
:1062D2002C2532782C2532780D0A00001184160103
:1062E20001158E1601244944454E5152553A2578DE
:1062F2002C2532782C25782C2532780D0A000000C6
:1063020000000001140000004000000000001185A0
:10631200180101000000000000581B000001B7181E
:10632200010000000000000000000000000000006A
:106332000021000000002D6572722D000000000097
:10634200000000000000000000000000FFDF1C0150
:10635200212401B94F01243601CB44014C4543525B
:1063620045544E4953474E4954544553000000008A
:10637200000000000000000000000000000000001B
:10638200000000000000FFFF00000000000000000D
:1063920000000000B80B0000013A1D0100151B01AE
:1063A200000000081B1B010000000C1C1B01000068
:1063B200000F1D1B010000000E1E1B010000000348
:1063C2001F1B010000008000000001FF030500FF09
:1063D200007F0DFF1911910000000DFF197F00FFD2
:1063E2001A008500000002FF040000FF0506860077
:1063F200000002FFFF070500060805FF07088800E6
:10640200000002FF080F0701130107FF0A04060339
:106412001403810000000BFF090902FFFF0289003B
:10642200000002FFFF0405FF0B0A8A00000002FFC2
:10643200FF0B08FF0C0C8C00000002FF0D0D00FF8B
:106442000E0E8E000000090417100902150009FF44
:106452000F009000000000FF16000C0518000CFF52
:1064620016008300000003FF010404FF010400FF83
:1064720002048700000005FF09048400000005FFF4
:10648200FF008F0000000AFF09048B00000008FFD4
:10649200100D8D00000008FF0000820000000BFFBD
:1064A20009048A0E37600E06201B019F1B01D71CB0
:1064B20001D61C01000000000000FFB21C01FF0019
:1064C20000006B1D01791D01431D013B1D010000F0
:1064D20000000000FF0000000000000000000000BB
:1064E20000000000000000000000000000000000AA
:1064F200000000000000000000000000000000009A
:106502000000000000000000000000000000000089
:106512000000000000000000003400030000000042
:106522000000000000000000000000000000000069
:106532000000000000000000000000000000000059
:106542000000000000000000000000000000000049
:106552000000000000000000000000000000000039
:106562000000000000000000000000000000000029
:106572000000000000000000000000000000000019
:106582000000000000000000000000000000000009
:1065920000000000000000000000000000000000F9
:1065A200000000000000000000000000441D010087
:1065B20000000000000000000000000000000000D9
:1065C20000000000000000000000000000000000C9
:1065D20000000000000000000000000000000000B9
:1065E20000000000000000000000000000000000A9
:1065F20000000000000000000000000000004E5FEC
:106602005061636B65744469737472696275746F07
:1066120072004E5F46736D005265637572736976E0
:10662200652046534D206661696C7572652E207433
:1066320061626C6553697A653D2568752C206672C6
:106642006F6D53746174653D2568752C20657665A0
:106652006E743D256875004E5F4D656D6F727900F1
:106662004E5F5461736B004576656E7420256875C4
:10667200206F66207461736B20256875206E6F74BD
:106682002068616E646C6564000000000000000018
:1066920000020000000000000000000000FFFFFFF9
:1066A200FFFFFFFFFF4E5F45727248004E5F436F70
:1066B2006E6E656374696F6E436F6D6D6F6E000011
:1066C20000000000000000000000000000000000C8
:1066D20000000000FF0000000000000000000000B9
:1066E200004E5F436F6E6E656374696F6E00537424
:1066F200617274696E6720646973636F766572791B
:1067020020666F722075706461746564206E6574B2
:10671200776F726B7300446973636F766572792069
:10672200666F722075706461746564206E6574773B
:106732006F726B7320636F6D706C657465640000BB
:106742000000000000000000000000000000000047
:10675200000000000000F924010101000101000015
:106762000000000000000000000000000000000027
:106772000000000000000000000000000000000017
:106782000000000000000000000000000000000007
:1067920000000000000000000000000000000000F7
:1067A20000003400030000000000000000000000B0
:1067B20000000000000000000000000000000000D7
:1067C20000000000000000000000000000000000C7
:1067D20000000000000000000000000000000000B7
:1067E20000000000000000000000000000000000A7
:1067F2000000000000000000000000000000000097
:106802000000000000000000000000000000000086
:106812000000000000000000000000000000000076
:106822000000000000000000000000000000000066
:1068320000000000003125010000000000000000FF
:106842000000000000000000000000000000000046
:106852000000000000000000000000000000000036
:106862000000000000000000000000000000000026
:106872000000000000000000000000000000000016
:106882000000000000000000000000000000000006
:106892000077250100000000000000000000000059
:1068A20000000000000000000000000000000000E6
:1068B20000000000000000000000000100000000D5
:1068C2002826010000000000000000000000000077
:1068D200000000000000852501000000000000000B
:1068E20000000000000000000000000000000000A6
:1068F2000000000000E8030000014D260100000036
:106902000000000000000000000000000000000085
:106912000000000000000000DC05000001E026018C
:10692200FFFFFFFFFFFFFFFF535F4E7600526573CD
:10693200697A696E67204E56206974656D202869F0
:10694200643D256875292066726F6D202568752063
:10695200746F202568750000000000000000000030
:1069620000000000000000000000000000FF000026
:106972000000000000000000000000000000000015
:10698200000000000000000000000000004E5F4315
:106992006D6900000000000000000000000000001F
:1069A20000000000000000000000000000000000E5
:1069B200000000000000000000000000001D300187
:1069C20000000000000000000000000000000000C5
:1069D200000000000000C32E014E5F496E74657214
:1069E20050616E00C23001C23001C23001C23001BA
:1069F200C230010000000000000000000000FFFFA4
:106A0200FFFFFFFFFFFF00000000000000004E5FDD
:106A1200526164696F004E5F446576696365496ED1
:106A2200666F00000000000000000000000000008F
:106A3200000000000000000000000601000000004D
:106A42000000000000000000000001000000000043
:106A52000000000000000000B73601000000000046
:106A62000000000000000000000000000000000024
:106A7200004E5F5A64700000000000000000000039
:106A8200003638014E5F53656375726974795F43EE
:106A9200616C63004E5F5365637572697479004B74
:106AA20065794269744D61736B2C307825303458A6
:106AB200004E5F416464726573734D616E61676518
:106AC20072000100F7FF0100FFFE0000000000005D
:106AD20000000000973C014E5F4C696E6B5461727E
:106AE2006765740000000000000000000000000064
:106AF2000000000000000000000000000000000094
:106B02000000000000000000000000000000000083
:106B12000000000000000000000000010000000072
:106B220000000000000000000000000080000000E3
:106B32000100037F0101010101FF0001810000004A
:106B420002FF03028200000001000D0301010101A6
:106B520001FF00010302137F0FFF047F00FF007F8C
:106B620002FF027F0403057F0503067F0707120A5F
:106B720007FF110B08FF070B0C050E080AFF0D0695
:106B820006FF107F8A0000000EFF110B8B00000031
:106B920000FF0C048400000002FF080585000000CD
:106BA20009FF0900880000000D06FF7F0D04140292
:106BB2000DFF0D0900FFFF028900000002FF0F0018
:106BC2008600000002FF0A07870000000BFF0B008F
:106BD2008300000002FF030002000000D63C01F027
:106BE200152B9C1601BD40018B4101D041010000D3
:106BF200000F42010000002342019A420159430161
:106C0200000000A042015D44013943015D44013F9F
:106C120044016344018E4401000000FF4E5F4C6951
:106C22006E6B496E69746961746F72002B1917007B
:106C32000000DD4C01DD4E010000000000000000FC
:106C42000000000000000000000000000000000042
:106C5200000000C345010000000000000000000029
:106C62000000000000000000000000000000000022
:106C72000000000000000000000000000000000012
:106C82000000000000000000000000000000800082
:106C9200000001FF000107FF010408FF01070209CC
:106CA2002B0D02FF010B12FF01228100000004FFE5
:106CB200077F0001077F0000050200FF027F050237
:106CC200091A0503087F06FF06039A00000000FF69
:106CD20005028200000004FF0A008300000004FF96
:106CE2000B008400000004FF0C058500000000FF7B
:106CF20003068600000004FF0D00A200000004FF4E
:106D02002923A300000000FF0324A400000004FFC5
:106D12002A008700000004FF240888000000110FE9
:106D220004091110260A11FF257F00FF03098A00BA
:106D3200000004FF27008900000004FF28008B00E8
:106D4200000004080F10040B1B17040C1A1704FF91
:106D52000E0F8D00000013FF100E8E0000000BFFBF
:106D6200010B0CFF130000FF13009700000000FF4F
:106D720003188F0000000904FF7F0905041609FFAC
:106D8200041500FF0316900000000A06FF7F0A07A1
:106D920004160AFF150C00FF031698000000040DEC
:106DA2001C1904FF2C13990000000D1218000DFF8E
:106DB20017148C00000004FF2C119100000000FF4A
:106DC2001112920000000B1218000BFF17140CFF97
:106DD2001300930000000012180000FF1714940023
:106DE20000000E1112000EFF2D7F000A167F00FF19
:106DF20014009500000004FF2C139600000004FF0D
:106E0200130052175D000000EB4B01DD4E01000044
:106E1200005B4F01000000764F01000000000000FF
:106E22000000008D4F01A04F01834F01A44F018349
:106E32004F01000000000000000000000000FF0001
:106E42000000000000AF4F01000000000000000041
:106E52000000000000000000000000000000000030
:106E6200000000000000FF8000000003FF011B9BE8
:106E720000000004FF1D1C9C0000000F0E1E1D10D0
:106E82000E1F1D00FF0321A100000004FF22009D30
:106E920000000000FF031E9E00000004FF111F9F60
:106EA2000000000B1219000BFF17200CFF2100A09D
:106EB2000000000E1120000EFF2D7F000A167F0039
:106EC200FF2300776C50647344617461536572767A
:106ED20065720000000000000000000000CA5101BD
:106EE20070776C506473496E6974004751010000F9
:106EF200000000000000010000000000000000008F
:106F02000000000000E8030000016C54010D4F0076
:106F1200144100216B000DA5001DE90069CC002C75
:106F2200F100BCF000191E01000000EA5C01E32040
:106F32000121FE000853010000FFFF0000000000D5
:106F42000000000000616901010203040506070850
:106F5200090A0B0C0D0E0F10445F4E7600776C5031
:106F620064735479706573436F6E7665727465727B
:016F7200001E
:106F7400FF2400917A59023141F004B70F71009354
:106F84007A5900FF05C001E001C001E100937A597C
:106F940000E004BF0091600008610093600000E01D
:106FA4000093600008954FB7ACD000E0E6D00483AE
:106FB4000583068307834FBF0895E8D000FF0AC006
:106FC40001E00E94A23CDED0EEDFEEE9FAE10189A5
:106FD4000B7F018B08952BD00091B60000620093C3
:106FE400B60000E00093B2000093B0000093B1003B
:106FF4000093B30045D003E007BB07E00093B10062
:1070040000917000016000937000089539D00FD092
:107014000091B100087F0093B10003B5026003BD85
:107024002FD00091B6000F7D0093B6000895009113
:1070340070000C7F0093700008950090B200402D02
:10704400409550E0401751075207530778F4041B4A
:10705400104020403040E5E3FAE114832583368371
:10706400578300835183528353830895000E08D0BD
:107074000092B30002E007BB009170000260C3CF2E
:107084000091B6000F71E1F708950E9407271FB71A
:1070940038D045858091B20090E0A0E0B0E004E4EF
:1070A4000093B400EDDFB89B04C08091B20081501E
:1070B4009F4F1FBF50E00FEF10E00E94EC25212FDF
:1070C400220F220B800F911FA21FB21F40845184F4
:1070D400628473844FE160E070E08C019D010E9442
:1070E4002F26400E511E621E731E42E08C019D012C
:1070F4000E945A26040D151D261D371DE8E00C9428
:107104001827F894E5E3FAE1089500E210E020E09E
:1071140030E008952FB7F5DF058510E015872FBF00
:1071240020E030E040E45FE160E070E00E942F2660
:107134004085518562857385400F511F621F731FFF
:107144004087518762877387401751076207730727
:1071540018F404850395048708958AD0ACB712D037
:1071640000E0E5E3FAE109D011D000FD95D00ED09E
:1071740002FD0FD0ACBF68D0189500830183028351
:1071840003830895009170000D7F3DCF0091AF1AE5
:10719400089548D00064118300832FBF2FB7F8945B
:1071A400EBEFF9E1008111810260118300832FBFAD
:1071B40008954A92BA935CD04CB6A5E3BAE1FD01B6
:1071C40038D0012B022B032B99F438D0012B022B3E
:1071D400032B41F4DBDF00FD5FD0D8DF02FF16C0D4
:1071E400D8DF14C04DDF2AD00093B30043DF09C0B9
:1071F40020D0015010402040304004831583268362
:107204003783C4DF00FF02C00E94353DFD010585C0
:107214000395058707D00068BEDF4CBE15D0B99131
:10722400499018952FB7F894EDE0F2E000811181B0
:107234000895048115812681378108950D911D914A
:107244002D913C91139708959BBF8FBF099119917C
:10725400299139914991599169917991099019909C
:1072640029903990E991F99189919991A991089579
:10727400AA939A938A93FA93EA933A922A921A9245
:107284000A927A936A935A934A933A932A931A9353
:107294000A938FB79BB7089500E00C94A23C980121
:1072A40003E41AE10F940E5415D018600FD02FB7D1
:1072B400F894EBEFF9E100811181026007C000E06E
:1072C400E3E4FAE10083018305D0177F118300838F
:1072D4002FBF08952FB7F894EDE0F2E000811181FB
:1072E4000895BA93AA93609720E0E3E4FAE1A081B9
:1072F400B181FD010281002331F0025009F443C041
:10730400025009F10AC000E0FD012381348110E03C
:10731400200F311FF90161D0B8F303E41AE10F948F
:107324002754E3E4FAE100811181012B09F0BCDF69
:10733400FD01068117812085F8012CBF19956096FF
:10734400A991B991089520933C0100E120933E0155
:107354000A95E1F700913C01006800933C0100911B
:107364003D0100FFFCCF00E030913F01FE01E00F42
:10737400F21F308303950031B8F300E0FE01E00F03
:10738400F21F2BD0D8F300E01EC018E010933C018C
:1073940040E029D0108110933E0143954031C8F359
:1073A40010913C01106810933C0110913D0110FFB5
:1073B400FCCF40E010913E0116D01083439540313C
:1073C400C8F3205F0395FD011581011708F0A5CFCF
:1073D40012811230D1F610E0D9CF108110933F0101
:1073E400039500310895FD0163817481022E1124F7
:1073F400040E111C600D711DFB0108950C94882569
:1074040000E117E21093A9000093A80008E000939C
:10741400A1000091A10002600093A10000917200FC
:1074240002600093720020E032E00EE20D9461539A
:107434001FD0E5E4FAE100811181228133810895AE
:10744400E5E4FAE12FD02FB7F894EDE0F2E0008103
:1074540011810062118300832FBF2FB7F894EBEFE3
:10746400F9E1008111810260118300832FBF089527
:107474002FB7F894E5E4FAE1058110E015832FBFF6
:1074840020E030E04AE050E060E070E00E942F2607
:1074940009D0401751076207730718F40481039554
:1074A400048308954081518162817381400F511F8B
:1074B400621F731F40835183628373830895FA9319
:1074C400EA933A932A931A930A933FB700914A1A7C
:1074D400039500934A1AB7DF3FBF09911991299187
:1074E4003991E991F9911895BA93AA93D9010E9417
:1074F400ED3F4D915D916D917C9113974F31E0E09B
:107504005E076E077E0778F004171507260737070E
:1075140070F400321E072E073E0728F00D931D93CA
:107524002D933C9304C0ED93ED93ED93EC93A991CB
:10753400B9910895F999FECF2FB7F89419E0E0E0D6
:10754400F0E017BF04912FBF0F70023019F4E093DD
:107554004B1A03C001E000934B1A0FB7F894109133
:107564004B1A112349F45F9350E85093610050E0A3
:10757400509361005F9108C05F9350E8509361009D
:1075840051E0509361005F910FBF00914B1A0023AB
:1075940011F40E94B83E089500914B1A0895BD015C
:1075A40020E032D02083F8014585568529D03496D1
:1075B40040835183F801A385B0E02485222331F46C
:1075C40022E02C931DD03296B08305C0BC9332893F
:1075D40017D032963083F80134851BD0378519D003
:1075E400308917D0318915D00BD0208120680BD079
:1075F4002081286108D0008100680083DB010895A0
:10760400E385F0E008952083F801E385F0E0319606
:107614000895E385F0E032962081232B2083F8013E
:1076240008951FD00F7D008300E034C01AD00F7B73
:10763400008301E02FC028D0ACBF9BBF8FBF09914E
:1076440019912991399149915991699179910990A7
:10765400199029903990E991F99189919991A99179
:1076640008952FD0E1ECF0E0008108952AD0009134
:10767400C0001091C6000C7129F400EC0E94C041B6
:1076840002E002D0D9DF18950C94A3410AD00F7DF3
:10769400008303E0D0DF189504D00F7B008304E05F
:1076A400F9CF0FD0E9ECDFCF0CD00091C8001091D6
:1076B400CE000C7129F408EC0E94C04105E0E4DF1F
:1076C400E1CFAA939A938A93FA93EA933A922A92ED
:1076D4001A920A927A936A935A934A933A932A9300
:1076E4001A930A938FB79BB7ACB70895502F212FE5
:1076F4002DD0602F00952370543090F4550F1AB19B
:1077040010231AB90BB1062B0BB9452F2BD0452FDB
:10771400022F1ED010916900102B1093690012C023
:107724005450550F1DB110231DB90EB1062B0EB9BF
:10773400452F11D0452F022F0BD010916A00102B2A
:1077440010936A000CB3062B0CBB0895402F01E084
:1077540010E00C94F6250DD010916A0010231093BC
:107764006A00089506D010916900102310936900EF
:10777400089503E0EDDF0095089531D00081118173
:10778400228113C02CD00381148125810EC027D0FF
:1077940006811781208509C022D0018512852385A1
:1077A40004C01DD004851585268501D01895F801DF
:1077B4002CBF1995ACBF9BBF8FBF0991199129911B
:1077C4003991499159916991799109901990299028
:1077D4003990E991F99189919991A9910895AA9380
:1077E4009A938A93FA93EA933A922A921A920A9271
:1077F4007A936A935A934A933A932A931A930A93DD
:107804008FB79BB7ACB70E94DF37ECE4FAE1089579
:10781400E6DF078510892189C8CFE1DF0289138952
:107824002489C3CFDCDF058916892789BECFAA93B3
:107834009A938A93FA93EA933A922A921A920A9220
:107844007A936A935A934A933A932A931A930A938C
:107854008FB79BB7ACB70091B900087FD9F0085037
:1078640099F0085089F0085091F0085099F00850A8
:1078740071F0085079F0005181F0085059F0085027
:1078840079F0085091F015C00E94AF4412C00E94D4
:1078940027450FC00E949F440CC00E94434509C065
:1078A4000091BB000E94564504C00091BB000E9499
:1078B4008245ACBF9BBF8FBF099119912991399122
:1078C4004991599169917991099019902990399028
:1078D400E991F99189919991A9911895F999FECF16
:1078E40047B740FDFDCF32BD21BD10BD1FB7F89491
:1078F4000FBBF99A1FBF0895FA93EA933A932A9318
:107904001A930A933FB7FB982FB7F894EDE0F2E08F
:10791400008111811062118300832FBF2FB7F89467
:10792400EBEFF9E1008111810260118300832FBF25
:107934003FBF0991199129913991E991F9911895CC
:10794400EEE9FAE100FB018901F9018B0E7F018B5D
:10795400F3D03FB79DD01160118300833FBF3FB781
:10796400A1D03FBF08950F945B53002349F1F894CD
:107974000091FB191091FC19012B11F1EEE9FAE1C8
:10798400018900FF02C000E0DBDFEEE9FAE10189D2
:1079940002FF14C02FB7F894EDE0F2E000811181EA
:1079A4000064118300832FBF2FB7F894EBEFF9E144
:1079B400008111810260118300832FBF78940895A0
:1079C400EEE9FAE101890860018B018902FF07C031
:1079D40007E003BF7894889500E003BF08950E94F0
:1079E400083805E003BF7894889500E003BF0E943F
:1079F400ED370E94B83E089521970091AF1A00FF19
:107A040030C00091A1000D7F0093A100E4E6FAE1EB
:107A14000081118122813381012B022B032B29F454
:107A240086D0008311832283338338D002FD02C0C1
:107A340001E001C000E0088301899E0103FD02C04A
:107A44000CE201C00FE20F94C253F999FECF0091EA
:107A5400390102600093390186DF04E40093B40025
:107A640012D0219608951AD00160018B0CD02FB743
:107A74000FD01260118300832FBF2FB713D02FBFF5
:107A840000E010E008950091B6000F71E1F7089549
:107A9400F894EDE0F2E0008111810895EEE9FAE155
:107AA40001890895F894EBEFF9E1008111810260F6
:107AB40011830083089521970091AF1A01FB00E020
:107AC40000F9088334D04081518162817381041BA1
:107AD400150B260B370B40E04083418342834383DD
:107AE4000E94223A0091A10002600093A10024D0D8
:107AF400009141010F710830D9F7D0DF077F018B66
:107B04009E010DE20F94C253C9DF01FD0FC04081F5
:107B14005181628100E040305007600739F00189EB
:107B240004FB00E000F9FA016CBF19959ACF0E949A
:107B34004738E4E6FAE10895009139010D7F009396
:107B440039010895F8940091FB191091FC19012B47
:107B540011F07894089501E003BF7894889500E0CB
:107B640003BF0895BA93AA939A938A93FA93EA93D4
:107B74004A933A932A931A930A934FB74BD00381AB
:107B8400002345D0C80151F401968083918320914C
:107B9400790045D0A00FB11F2C930EC001968083AD
:107BA4009183209178003091790039D0000F111F12
:107BB400A00FB11F2D933C932DD029D02085318562
:107BC40002171307B9F400917A00077F00937A0033
:107BD4002FB7F894EDE0F2E01AD01061118300831E
:107BE4002FBF2FB7F894EBEFF9E111D002601183A6
:107BF40000832FBF4FBF0991199129913991499160
:107C0400E991F99189919991A991B9911895008176
:107C140011810895E0919C1AF0919D1A0895FADF5C
:107C2400A681B7810895BA93AA939A938A93FA93F3
:107C3400EA933A922A921A920A927A936A935A93FC
:107C44004A933A932A931A930A939FB7ABB7BCB754
:107C54008EB50E940D47082F0E9428472FB7F8942D
:107C6400EDE0F2E0008111811460118300832FBFE5
:107C74002FB7F894EBEFF9E10081118102601183D1
:107C840000832FBFBCBFABBF9FBF0991199129913E
:107C94003991499159916991799109901990299053
:107CA4003990E991F99189919991A991B99118958E
:107CB4000E940B27B0E882E89BE8A0E00E94902590
:107CC400F801A80160E070E02224332403380BE8B3
:107CD4001007B8F042585B4860407040841795071D
:107CE400260637062CF4A23019F433D00A951DC0A9
:107CF40030D00A9531D08E2F912F82589B48A1E025
:107D040022C0E2381007E0F402E81BE820E030E08B
:107D1400041B150B204030408017910722063306C0
:107D240034F4A13021F415D0039516D00FC011D02E
:107D3400039512D082E89BE88E1B9F0BA2E003C040
:107D4400E2381B4819F0BA9509F0B8CFE4E00C9476
:107D54001C270091660008950093660000000895B2
:107D64000E94CE3A002309F4A3DF08959A938A93DC
:107D740088E893E108EC0E9488250197D9F7F0DFA1
:107D8400899199910895009135010061009335011D
:107D940000913401006100933401009133010061CA
:107DA40000933301009132010061009332010E947B
:107DB400ED370E949C3A0E94023A10E004E00E94CF
:107DC400783B789408950E9409272397C80110E00E
:107DD400188319831A834EB25AB403E0EDEFFFEF10
:107DE40033E0DE010E94D9FA9ABD8EBBE881F981A5
:107DF4002A812CBF19950E945B484EBA5ABC23961F
:107E0400E6E00C941A27089508950895089502E071
:107E14000093741A0895E4E7FAE110812183328310
:107E240000830091A4001091A50021813281020FEA
:107E3400131F0383148328D004E009BB009172004C
:107E440004600093720001E00895CA9816D0E0CF50
:107E54004BD0E4E7FAE10081013019F40ED000833D
:107E640009C00181128123813481200F311F2383B2
:107E740034830AD00E94764E20C0009172000B7F9A
:107E84000093720002E008950381148101311742C6
:107E940030F003811481005117420383148303815A
:107EA40014811093AB000093AA0008951DD00E9482
:107EB4000B4C03C019D00E94614D01D01895ACBF82
:107EC4009BBF8FBF0991199129913991499159917A
:107ED400699179910990199029903990E991F991D2
:107EE40089919991A9910895AA939A938A93FA935F
:107EF400EA933A922A921A920A927A936A935A933A
:107F04004A933A932A931A930A938FB79BB7ACB7C1
:107F14000895EADF0E94374ED0CF0E940927D80186
:107F2400012B11F40FEF1CC00E948738A801B9017E
:107F3400FD0106811781208531850E942F2648EE98
:107F440053E060E070E00E945D262801012B022BC3
:107F5400032B11F40EEF04C016D002FF03C00DEF83
:107F64001FEF0EC00460018B01EA1AE1FD014EE02F
:107F740050E00E94E02682010E941F3800E010E0D9
:107F8400E6E00C941A27EEE9FAE101890895FBDF93
:107F940002FF20C00585002379F406851785208912
:107FA400F8012CBF1995EFDF02FF14C0018512857B
:107FB400238534850C941F3801890B7F018B4685FA
:107FC4005785608900E040305007600719F0FA01D6
:107FD4006CBF199508950E94022760978FEF9FEF59
:107FE400AFEFBFEF93D02801390197D0F9F1E081C9
:0C7FF400F12F86809780A084B184028069
:10800000138024803580CC2488869986AA86BB86F6
:10801000CC86CD86CE86CF8631D03A922A921A92DD
:108020000A92FE0170962FD00E942527088319839B
:108030002A833B834C835D836E837F831FD07A9238
:108040006A925A924A92FE0138961DD00E94682781
:1080500058F4080C191C2A1C3B1CC001D1018419BE
:108060009509A609B70904C080E090E0A0E0B0E05F
:108070008C019D016096EDE00C941327CA92CA9280
:10808000CA92CA92089509911991299139914991F9
:1080900059916991799108950E9409271CC051D086
:1080A00040805180A20120E030E08F010E94BD4657
:1080B000F2010285002341F482839383A483B58374
:1080C000AC01BD0192015FD0F201038514852585C5
:1080D000F8012CBF199523D0C1F01AD0C801D901DD
:1080E00019D00281138124813581AC01BD01401B6F
:1080F000510B620B730B0ED00681178120853185E1
:10810000401751076207730750F6E6E00C941A27F0
:108110000C941A3A16D00081F181E02F089556D0C0
:10812000012B089520E00DD001C0FA01408151815A
:10813000342F352B21F040175107B9F721E0022FDA
:108140000895E9E7FAE10895BA93AA93D801012BBB
:1081500019F40FEF1FEF14C00A2FE4DF002371F4AE
:10816000D7DF40E04D934C9311960D931D932D93C3
:108170003C931597A801B9019D0105D000E010E0DE
:10818000A991B991089509E71AE10C9417469A93B9
:108190008A93C80120E030E0012B59F017D008176E
:1081A000190751F09C018F010E94DB469801012BB9
:1081B00019F40FEF1FEF07C0AC0109E71AE10E94A5
:1081C000BD4600E010E0899199910895BADF0081E1
:1081D000118108954A928A9328970E9447384090C7
:1081E000411A1124188219821A821B824C821D8224
:1081F0001E821F8240E050E060E070E0FE010E94BD
:10820000362728968991499008950895EBE7FAE179
:1082100040815181628100E040305007600719F0D1
:10822000FA016CBF199508950E940A27279701E06B
:1082300010E00883198344240FB7F894EDE0F2E0CE
:10824000208131812A833B830FBF0A811B813AD071
:10825000A9F10A811B812881398102231323EDE0D2
:10826000F2E030D009F10FB7F894288139814081CC
:10827000518142275327408351830FBF03E010E011
:10828000442D50E00E94EC25E0EDF5E530E0E00FF4
:10829000F11F03E010E0DE0114960E94D9FAEC8190
:1082A000FD812E812CBF1995439408811981000FFF
:1082B000111F0883198300E1401658F22796E5E064
:1082C0000C941B272281338102231323012B089551
:1082D000C4D0249701E0088380E090E093D110910E
:1082E00011022881122320911202122309F091E039
:1082F0000FBF9923F1F090E085D11881E1E1F2E020
:108300002081212720830FBF03E010E0AC010E94F1
:10831000EC25E6ECF6E530E0E00FF11F03E010E0BD
:10832000DE0111960E94D9FAE981FA812B812CBFD6
:10833000199583950881000F0883863078F224967A
:10834000E4E00C941C27402F01E010E00E94F62589
:10835000E1E1F2E01081102B108351D1EDE0F2E069
:10836000008111810061118300832FBF48D1EBEFA1
:10837000F9E1008111810260118300832FBF08950C
:108380006CD0802F212F4ED246855785042F052B88
:1083900039F4E82FF0E0319600810F77008357C061
:1083A000FA0102A103FD53C06489758904FF0DC061
:1083B000FB012083FD01A685B78554960D911C9184
:1083C0000F5F1F4F1C930E9342C08A01672BF9F178
:1083D000468157818681978101968683978338D01D
:1083E000668977898617970721F460E0F80166832C
:1083F0006783F801668177810480158060157105B7
:1084000019F44683578323C023D064897589640F88
:10841000751FFB012083F801208531852F5F3F4FB9
:1084200020873187FD01A685F785EA2F22A120FF4D
:108430000EC02385283C59F426893789369527951F
:10844000F801008511852017310708F45D9A78CF6F
:10845000FD016685F785E62F08950C940B27DFD183
:10846000D801012B61F03CD111F0185041F412A158
:1084700010FF02C0083C19F41ED2012B11F09DD14F
:108480003FC0A687B787FD010385083C91F402A190
:1084900001FF02C06C98749802A100FF0AC0559AAF
:1084A00054985C9804891589012B11F45D9A01C0D8
:1084B0005D980485003411F48D0108D200E00D931D
:1084C0000C931197FD010283038304891589012B05
:1084D00019F400E0068B078B008D118D012B19F428
:1084E00000E0028F038F00E0048305830683078387
:1084F00001E002878D010E94D13AFD01038510E061
:108500008BC10E940C27A02F802F90E0805C9040B0
:108510008C01C3D12EE73AE1EDD08901000D111D88
:10852000F80146855785642F652B09F465C0BA01AB
:10853000A83C69F500241124FA0122A021FE06C0FE
:10854000649B02C0E1E001C0E0E00E2E20FE06C008
:108550004C9B02C041E001C040E0142E402D417010
:10856000512D5170452B99F04AE050E0F9014683B6
:1085700057835087518701E0028740EE53E460E063
:1085800043875487658789010E94A44035C037D04E
:10859000FB0102801380408151812FBF2A2F30E0E0
:1085A0002F5F3F4F0416150619F1008C118C040E35
:1085B000151EF0010080EA2FF0E080818064808346
:1085C000369600824F5F5F4FF8010685F785E02FF2
:1085D0001BD14017510711F440E050E0F901008130
:1085E000006200830FD0FB01408351830FBF04C0A2
:1085F000F901008100640083E3E00C941D272FB78C
:10860000F89408950FB7FCCF0E940927D801B9014B
:108610009A0180E090E050E0012BE1F061D011F090
:108620001850C1F4162F172BA9F0142F132B91F00B
:108630005DD0F001E258F54E46D1A017B10751F4D4
:10864000E2D0012B89F4028113814081518104170A
:10865000150711F0B2D041C0608F718F2283338330
:108660008D938C93C90130C0CDDF028013802080B0
:1086700031800FBF0214130471F451E00CC0FB01F0
:10868000E80FF91F4081FD01008D118D040D151DAE
:10869000F801408301968217930778F4200101E0E6
:1086A000000E00E0101EAFD00016110611F40024D9
:1086B00011240214130419F70201A4DFFD01028240
:1086C00013820FBF552341F000E00287E385F0E0FD
:1086D00031960081006200838C01E6E00C941A2739
:1086E000EA2FF12F0385102F105C089510E0005C35
:1086F0001040D3D012E0019F0895AFDED801BA0137
:1087000080E090E0012B89F0EBDF11F0185069F464
:10871000122F132B51F0142F152B39F0E7DFCED089
:1087200046855785A417B50711F047D045C08A0183
:108730002FB6F894FA0146815781048015802FBE28
:1087400018C0FD0124883588200C311CF1012080DF
:10875000F901E80FF91F2082E1E00E0EE0E01E1E95
:10876000FD01268837880214130411F40024112413
:1087700001960416150619F08617970710F33FDFC8
:10878000F8010482158240855185481B590B4087AA
:108790005187408551852FBFFD010385083C59F461
:1087A00002A100FF08C006891789169507950417CE
:1087B000150708F05D988C01C3CD0FEF1FEF0895EA
:1087C00008EC9FCE2CD02ED07ED0202F212BD1F0A4
:1087D00067D011F401E002871AD016D0012B19F4EA
:1087E00000E0008F018FFD01A685B7855F964D9152
:1087F0005D916C9100E040305007600719F0FA017C
:108800006CBF199509C0FD01028D138D08951E9648
:10881000ED91FC911F970895A991B9910895BA938C
:10882000AA93089530D039D065DF02D0FD010895B4
:10883000AEE7BAE1A00DB11D0895F1DF24D02DD02F
:1088400059DF2EE73AE1200D311DD90122D0D1F0B8
:1088500002A10871B9F44FB7F894008511854FBF94
:10886000402F412B79F0F901A685B7855C960D90D4
:108870001D902C9040E004161406240619F0F00117
:108880002CBE1995C9CFE02FF0E0E05CF0408F01DD
:108890000895BDDF0E2F0F2B089543E00C940026A2
:1088A000F8010FB7F89422813381408151810FBFC5
:1088B0002417350708951ADF01D005C0EEE7FAE165
:1088C000E00DF11D0895068517850895F8012385AB
:1088D0000389002349F4205C19F0285019F0089509
:1088E0006A9A0895559A0895205C19F0285029F045
:1088F00008956A987298729A089555985D985D9A4D
:10890000089500EC5ECF00EC5DCF00EC96CF58CF21
:1089100008ECFACF08ECFACF219702E100937A59DC
:108920000FB70883F894A895009160000861009340
:10893000600008E00093600008810FBFFFCF3B2F6D
:108940004A2F07E07FD01197028300E940D0A42F7F
:10895000B32F0895E0E9FAE12081318108958ED0A6
:10896000023031F00281033019F00281043019F431
:108970000581000F06C00281053029F40581000F32
:108980000395BAD001C091D076C0AED0E0E9FAE14B
:108990000081F181E02F20813181468157812417A8
:1089A000350770F420813181C9010196808391835C
:1089B00049D0A085B185A20FB31F0C919DD002C0F4
:1089C00026E003D0E4E00C941C27228304E9009302
:1089D000BC002FB7F894EDE0F2E083D0106411836F
:1089E00000832FBF2FB7F894EBEFF9E17AD0026044
:1089F000118300832FBF0895BD0124D04081518190
:108A0000415050404083518317D01B960D911D91CA
:108A10002D913C91440F440F440F0E945A266CD074
:108A200060D0012B39F40281023011F404E001C05E
:108A300005E00283DB010895A0E9BAE10D91BC9144
:108A4000A02F0895A0E9BAE1ED91FC91089516D008
:108A5000043011F49ADF0FC00281023019F0028154
:108A6000033011F4C9DF07C00281053019F405EAAB
:108A700046D001C01AD0A991B9910895BA93AA938A
:108A8000E1DF02810895FADF053069F4068117817C
:108A9000013010400091BC0011F40F7B01C0006454
:108AA00025D02DD001C001D0E6CF49CF1DD052DF57
:108AB000F9011281153099F436D00C93F90111D0D7
:108AC000C1DF868197810197081719070091BC00C3
:108AD00010F4006401C00F7B09D011D001C0E5DFA4
:108AE00071CF0081118108950C940B270093BC0075
:108AF0000091BC00056808950093BB0005E8009351
:108B0000BC000895F1DF202FE0E9FAE1EADFF80187
:108B10003281353031F407D02C9326E0F80155DF4F
:108B200001C0C3DF4FCF40815181CA0101968083CC
:108B3000918388DFA085B185A40FB51F0895BA93EE
:108B4000AA9380DF01E002830281063031F40091B4
:108B5000BC0004FDFCCF01E001C000E073DF4785ED
:108B600050896189FA016CBF199585CFE4E00C94B6
:108B70001C27119712BD01BDF89A08950E940B277A
:108B8000A2E9BAE102C03AD032D017D021F045D0E4
:108B9000D1F313D051F400E001870AD050076007E9
:108BA00031F0FA016CBF199502C089010BD0DECFFC
:108BB00046815781608540300895FD01048115810B
:108BC000012B08952F5F3F4F0CD0C90101968D9363
:108BD0009C931197F80110810CE00E94703CFD01FC
:108BE00006C0228333832D913C911197089504810F
:108BF00015810150104004831583089506D0890122
:108C00000F5F1F4F0283138308950D911C910F5F17
:108C10001F4F1C930E93FD0108950D911C91A9DF28
:108C200022813381F901008110B5011708950E9456
:108C300002276A970A831B83288339834E875F87BD
:108C4000688B798BAA81BB810D911C91012B09F452
:108C500073C000E00C830D83EA81FB81A081B181A8
:108C60008E849F84A888B988CC24FD01028013805B
:108C7000248035800E851F852889398900151105C6
:108C80002205330548F05FD063D080019101FE01D9
:108C900036960E94252710C000941094209430949A
:108CA000800191010F5F1F4F2F4F3F4F51D04BD08D
:108CB000FE0136960E944727FE0172960E944727C2
:108CC000E3E1F2E00E94682798F4E881F9810680E8
:108CD0001780208431840E821F8228863986CA86B6
:108CE000CB86CC86CD86FE0136960E946827D0F4CE
:108CF000AC83BD830D91BC91A02F0B2B09F0B5CF98
:108D00000C811D81012B51F028813981EC81F12FDB
:108D100020833183E881F981A083B1836A96EDE0F5
:108D20000C941327EA81FB8143D0A017B10741F7C8
:108D3000A881B9810D931C9308811981AA81BB81F7
:108D40000D931C93EBCF0681178120853185089503
:108D500040E050E060E070E00E831F832887398791
:108D60004A874B874C874D878A8A9B8AAC8ABD8A03
:108D70004E8B4F8B488F498F0895F8016081718128
:108D800046175707FA0159F46081718120E020836A
:108D90002183F801608371830081172F089508D023
:108DA000F9010083118300E0FA0100830183F901D6
:108DB000008111810895F801FBDF01C08A01402F75
:108DC000412B39F0F8014081518142175307B1F727
:108DD000089500E010E00895A991B9910895BA931B
:108DE000AA93ACE9BAE1ED91FC9102851385248543
:108DF000F8012CBF1995F0CF0EBD089523982B983C
:108E000000E00CBD0895A991B9910895E8E6FAE152
:108E10000895FCDF0081118108950E940B2757D02F
:108E2000068117812481358134960217130759F082
:108E30008081918101968083918349D0A48DB58DE5
:108E4000A80FB91F03D0E4E00C941C270C91D4CFD9
:108E5000BA93AA93202FDDDF012B11F4CFDF26C0B8
:108E6000E091681AF12F42855385028513850F5FC3
:108E70001F4F0287138734960A3030E0104011F4F8
:108E8000368337830681178164817581061717073A
:108E900019F4468357830AC0DA01A659B54E2C93BC
:108EA000008511850F5F1F4F00871187ACCFBA93E4
:108EB000AA932FB7F8940BD0048515852FBF202FC8
:108EC000212B21F047A150A561A506D09CCFA8E693
:108ED000BAE1ED91FC910895FA016CBF19942E97B7
:108EE000202F212B11F40FEF33C0F801458156815B
:108EF0006781EEE9FAE1408351836283F8012481BE
:108F00003091AF1A3F7E2295207F322B3093AF1ADB
:108F100000811181228133810E831F832887398745
:108F200001E00A8700E00B870C870D878E010E9405
:108F30008F3F0F3F2FEF120719F00D3F1F4F11F416
:108F40000EEF06C00E94353D0F3F1F4F19F40DEF85
:108F50001FEF02C000E010E02E96089571D000E0EF
:108F6000008309EB1AE10783108765D085D002E002
:108F700010E0058316837DD000E00093BF1A0895AA
:108F80000E940527C801D9012A014B0100E0009386
:108F9000B01A0091BF1A0023A9F052D04CD00F5F35
:108FA0001F4F2F4F3F4F081719072A073B0749F458
:108FB000FB0111914F0144D032853123328748D0D3
:108FC00001C04FD080FB4EF4F40111914F010FEF1F
:108FD0003AD08C019D0126D03BD040FA9EF4F4019A
:108FE000E40DF51D02911FEF2ED060E08C019D0174
:108FF000040D151D261F361F15D001E007870FEF42
:10900000400E501E042D052951F01AD087829086FB
:109010004DD04582568200EB1AE10E94E53EEAE01F
:109020000C941627015010402040304003871487CD
:109030002587368708950385148525853685089507
:10904000E0EBFAE10895E0EBFAE101871287089579
:1090500008D08F5F9F4FAF4FBF4F0FEF400E501E96
:1090600008957CCF1BD00C941C27EADF43E040839B
:1090700003D08F010C94E53E018312832383348354
:10908000089502D004E0EECF0E940B27C801D90159
:109090000091BF1A002309F0E4DF08950093B01A8D
:1090A000E0EBFAE103D0E5DFE4E008958183928309
:1090B000A383B4830895BA93AA93E0ECFAE1A08164
:1090C000B18103C000E010E0D8010A2F0B2B91F012
:1090D000FD0145815681678100E0403050076007FF
:1090E00019F0FA016CBF19950A2F0B2B59F30D914A
:1090F0001C91EACFA991B9910895E9E3F1E00081CB
:10910000016000830AE00E94003A08E000934201F7
:10911000009141010F710830D9F70E94093F0E9468
:10912000063F0E94053F01E008959A938A9382E0EA
:109130000091941B013019F401E00093C21A0091D0
:10914000941B002389F400E0009347019FB7F89433
:109150002CE830E001E00E940D3F9FBF002329F082
:1091600000E00093921B01C081E0082F8991999142
:1091700008950E940A27B02FA0E080E00E945B4E75
:10918000402E0091941B013019F401E00093C21AA3
:109190000091941B0023C1F59B2FB33009F498E094
:1091A0003CD0013169F40E94273F24E630E000E022
:1091B0000E940D3F02E00093921B2CD001E027C0DB
:1091C0002CD0083011F004E001C009E00093420106
:1091D00024D0093029F4B93151F40E94083F09C064
:1091E0000EE60E94003A8395833090F30EC00E94F1
:1091F000073FB093420111D09017E9F79093931B6A
:109200000FEF00934F0101C0A1E004D00A2FE5E069
:109210000C941B27042D0C94584E009141010F71A2
:109220000895F80140814A952091410120E00BC04A
:1092300030E0F801E20FF31F3081E22FF0E0E05858
:10924000FE4F30832395241798F302E000934201E8
:1092500008958A93F80180E00091941B013019F47D
:1092600001E00093C21A0091941B002309F08AC008
:109270000081005F09F476C0025009F46BC00E5003
:1092800079F0025001F10A9549F10C5409F440C0FB
:109290000A9581F10350A9F10C5109F442C073C041
:1092A00010914801107E01810F71102B109348011D
:1092B000009148010F710A3119F40E94354A63C0C8
:1092C0000E94374A60C001810E94394A10914501CD
:1092D000107F0F70102B1093450155C0109148015D
:1092E0001F7901810295007F000F0076102B1093EB
:1092F000480149C00181009362010281009363012A
:1093000042C00181009360010281009361013BC072
:1093100010916F01107F01810F70102B10936F015E
:1093200032C00181009364010281009365010381D1
:109330000093660104810093670105810093680131
:10934000068100936901078100936A0100850093FB
:109350006B0119C00181EEE6F1E000FB008103F929
:10936000008311C00181002329F00E945B4E00930D
:10937000C31A09C00FEF00934F010091C31A0E9456
:10938000584E01C081E0082F899108952997E9E39B
:10939000F1E0008101600083009141010F7108300C
:1093A000D9F700E00093C21A0093941B08E00093E1
:1093B000931B0E94063F0E94053FEEE6F1E000810C
:1093C00000620083EEE40081086000830081006495
:1093D00000830091D63B098300E023D00091DB3B62
:1093E000098302E01ED00091DC3B098303E019D021
:1093F0000091DD3B098304E014D0ECE4F1E000814E
:1094000000680083ECE600810F7000830081017F1B
:1094100000830E943A5AF801008100936D01299659
:10942000089508838E010C942949012F089511D0C5
:1094300071F4003111F401E001C000E02091440119
:109440002F7E0295007F202B2093440101C011E064
:10945000ECCF10E02091941B213019F421E02093EF
:10946000C21A2091941B2223089500E1E0CF00E06E
:10947000FDCF16E0033014F010E035C0023011F4D7
:1094800012E031C0013011F414E02DC0002359F175
:109490000F3F11F417E027C00E3F11F418E023C06E
:1094A0000D3F11F419E01FC00C3F11F41AE01BC06E
:1094B0000B3F11F00A3F11F41BE015C0093F11F0FA
:1094C000083F11F41CE00FC0073F11F0063F11F4F4
:1094D0001DE009C0202F225F243010F41EE003C0DD
:1094E000023F0CF41FE0012F0895E0E0F0E0FBBF25
:1094F000F4E40C948B2603E0089502E0089501E063
:10950000089500E008950FEF08950EEF08950DEF10
:1095100008950CEF08950BEF089509EF089507EFF4
:10952000089504EF08950FEE08950E940B27D801C7
:1095300080E00E945B4E902F0091941B013019F443
:1095400001E00093C21A0091941B002341F5109191
:109550005101107FFD0103810F70102B10935101F9
:10956000038104FF02C001E001C000E0E1E5F1E099
:1095700000FB008104F9008305E00E94003A00919D
:10958000510105FF08C0FD018483E1E5F1E00081A0
:109590000064008305C001E0FD01048301C081E097
:1095A000092F0E94584E082FE4E00C941C270E94BB
:1095B0000627380155240E945B4E902F0091941B82
:1095C000013019F401E00093C21A0091941B0023AA
:1095D00009F067C044247DD0013169F40E94273F1F
:1095E00024E630E000E00E940D3F02E00093921B71
:1095F0006DD001E068C0EDE4F1E0B081B3FBB0E014
:10960000B0F90081077F0083809141018F716BD099
:10961000883019F40BE90E94003A5FD006E064D06C
:1096200058D00630E9F7A0E01FC004E0802E01E02A
:109630000E94003A440C440C0091460102950F70C0
:1096400006950370402A8A9491F7F30101851285EB
:10965000202F212B21F00A0F151DF8014082F30164
:10966000338543863487A395F3010085A017E8F27C
:1096700000914D01077FBB0FBB0FBB0F0B2B00935E
:109680004D01883041F02FD028D006E12DD021D0D7
:109690000631E9F707C008E027D00FEF00934F012C
:1096A00001C05394F3010781002359F0EFE4F1E086
:1096B000008103FF06C0008108600083008103FD74
:1096C000FDCF04D0052DE9E00C941727092F0C9449
:1096D000584E009141010F710895009141010F71A1
:1096E0000930D9F7089509E00093420108958A935B
:1096F00080E00E945B4E1091941B113019F411E030
:109700001093C21A1091941B112349F52ED01830D2
:1097100041F023E020934201209141012F71283034
:10972000D9F7E8E5F1E0208120682083208127FD3A
:10973000FDCF183069F019E01093420116D01930AE
:10974000E9F716E11093420110D01631E9F703C092
:1097500018E0109342011FEF10934F0101C081E008
:109760000E94584E082F89910895109141011F7150
:1097700008951DD039F4FC0115812381F481E22F75
:10978000108301C0A1E00ED00C941D2710D041F42D
:10979000FC012381F481E22F1081FC01128701C0BA
:1097A000A1E0F1CF0E94584E0A2FE3E008950E94F5
:1097B0000C27C801A0E00E945B4E1091941B113051
:1097C00019F411E01093C21A1091941B11230895FB
:1097D0000D01BC01F901108300E0D9011196412F60
:1097E00050E0812F90E00196E02FF0E0E058FE4F2E
:1097F00010811D93039508175907B4F3240F351FE3
:109800000091951B0B55F90102830091961B038370
:10981000CB01D00108954A92BA93AA939A938A935E
:10982000442405E020918001122F1370133009F0B9
:109830005AC026FB0EF007E020918101269526955F
:10984000122F1370123011F40E5F07C0133011F491
:10985000085F03C0113009F446C022952F702230F2
:1098600019F4102F1E5F04C02330E9F5102F185F84
:10987000E12FF0E0E058FE4F30813430A1F51D5F5C
:1098800030917B01131779F54394E02FF0E0E05815
:10989000FE4F223019F4008141810EC040810181C8
:1098A000400F0281400F0381400F0481400F05816A
:1098B000400F0681400F0781400F042F0695069543
:1098C0000695F0E0E02FE556F44E008147700E94C7
:1098D000D925017041F4EEE6F1E000810F7D0083AF
:1098E0004092961B03C000E00093961B0091931BCF
:1098F00001E00093941B009147010093951B209178
:109900007B01322F3C5F0CE0409E8AEF9AE1800D94
:10991000911DFC01E358FF4F4481558110E06081A7
:10992000718146175707C1F46085718502841384DD
:10993000061A170A301511057CF462837383A0851B
:10994000B1853D93A087B1876085462F5B2F430F7C
:10995000511F4087518716C066817781641B750B44
:10996000361717070CF070C042835383A481B5816A
:109970003D93A483B5836481462F5B2F430F511F12
:1099800044835583462F5B2F042F052B09F45CC0BD
:10999000122F9A01042D1CDF00E081589F4FFC011B
:1099A00000830183ECE4F1E000810F77008302E0A3
:1099B0000E94003AECE4F1E000810068008300912D
:1099C00041010F71063111F5EEE60081006200835E
:1099D0000091C21A0023B9F02FB7F89400911F022A
:1099E000002369F43FB7F894EBEFF9E100811181AE
:1099F0000160118300833FBF01E000931F022FBF6E
:109A000000E00093C21A00E00093941B40FAE1E2E8
:109A1000F2E0008116F4016001C0026000832FB7FC
:109A2000F89400911F02002369F43FB7F894EBEF1C
:109A3000F9E1008111810160118300833FBF01E0E2
:109A400000931F022FBF37C00091C21A0023B9F044
:109A50002FB7F89400911F02002369F43FB7F894E0
:109A6000EBEFF9E1008111810160118300833FBFB9
:109A700001E000931F022FBF00E00093C21A00E034
:109A80000093941B04E00093420106E1009342011D
:109A90000091931BECE4F1E000810F77008302E07A
:109AA0000E94003AECE4F1E0008100680083EEE6F9
:109AB00000810062008389919991A991B99149909F
:109AC00008956A925A924A929A938A930091410118
:109AD0000F71093109F09DC02091EE1A4090C23BF0
:109AE0000091420102950F7006950093C41A0091EF
:109AF000911B033009F408E01091911B109342016F
:109B0000109141011F710117D9F70093931B009128
:109B1000C41A033029F00091C41A053009F05CC062
:109B2000222309F459C05524421A55088091EB1A92
:109B30009091EC1A0CE41DE120E030E0652C660CFD
:109B4000660848EE53E02224569D702D469D700D08
:109B5000559D602D710D469D600D711D549D502DBC
:109B6000610D721F459D500D611D721F449D510D69
:109B7000621F721F0019150B260B370B389F302DF3
:109B8000299F300D289F202D310D199F200D311D4B
:109B9000189F102D210D321D099F100D211D321D02
:109BA000089F110D221D321DC90102E0400E521CFA
:109BB00008EE13E0149D102D059D100D049D110D50
:109BC000800D911F0E94273F9C0101E00E940D3FE4
:109BD00003E00093921B45C000E00093ED1AE1E220
:109BE000F2E00081086000832FB7F89400911F0213
:109BF000002369F43FB7F894EBEFF9E1008111819C
:109C00000160118300833FBF01E000931F022FBF5B
:109C100028C0009141010F71063119F5EEE6F1E01F
:109C20000081006200830091C21A0023B9F02FB7AF
:109C3000F89400911F02002369F43FB7F894EBEF0A
:109C4000F9E1008111810160118300833FBF01E0D0
:109C500000931F022FBF00E00093C21A00E00093A0
:109C6000941B899199914990599069900895E1E5E3
:109C7000F1E000810F7B0083F093F61AE1E2F2E05D
:109C80000081046000832FB7F89400911F02002325
:109C900069F43FB7F894EBEFF9E1008111810160BD
:109CA000118300833FBF01E000931F022FBF08957F
:109CB00000934E01089500914E0110E010934E0163
:109CC00008950091C41A0A9559F00A9559F00A9519
:109CD00029F0025039F0025029F006C001E0089541
:109CE00000E0089502E0089503E008950091921BBA
:109CF0000050F9F10A9531F00A9599F10A9509F4A5
:109D000056C00895009141010F71093009F051C00A
:109D1000EEE6F1E00081006200830E94273F06E149
:109D2000009342010091C21A0023B9F02FB7F894B2
:109D300000911F02002369F43FB7F894EBEFF9E1BB
:109D4000008111810160118300833FBF01E0009316
:109D50001F022FBF00E00093C21A00E00093941B83
:109D60000895009141010F71063119F50E94273FB6
:109D700009C0009147010093EF1AE1E2F2E000818F
:109D8000006400832FB7F89400911F02002369F448
:109D90003FB7F894EBEFF9E1008111810160118385
